{
  "_format": "hh-sol-artifact-1",
  "contractName": "StakePool",
  "sourceName": "contracts/StakePool.sol",
  "abi": [
    {
      "inputs": [
        {
          "internalType": "address",
          "name": "_para",
          "type": "address"
        },
        {
          "internalType": "uint256",
          "name": "_rewardsPerSecond",
          "type": "uint256"
        },
        {
          "internalType": "address",
          "name": "_rewardsPoolAddress",
          "type": "address"
        }
      ],
      "stateMutability": "nonpayable",
      "type": "constructor"
    },
    {
      "anonymous": false,
      "inputs": [
        {
          "indexed": false,
          "internalType": "uint256",
          "name": "timestamp",
          "type": "uint256"
        },
        {
          "indexed": true,
          "internalType": "address",
          "name": "stakerAddr",
          "type": "address"
        },
        {
          "indexed": true,
          "internalType": "uint256",
          "name": "stakeId",
          "type": "uint256"
        },
        {
          "indexed": false,
          "internalType": "uint256",
          "name": "payout",
          "type": "uint256"
        },
        {
          "indexed": false,
          "internalType": "uint256",
          "name": "servedDays",
          "type": "uint256"
        }
      ],
      "name": "EndStake",
      "type": "event"
    },
    {
      "anonymous": false,
      "inputs": [
        {
          "indexed": true,
          "internalType": "bytes32",
          "name": "role",
          "type": "bytes32"
        },
        {
          "indexed": true,
          "internalType": "bytes32",
          "name": "previousAdminRole",
          "type": "bytes32"
        },
        {
          "indexed": true,
          "internalType": "bytes32",
          "name": "newAdminRole",
          "type": "bytes32"
        }
      ],
      "name": "RoleAdminChanged",
      "type": "event"
    },
    {
      "anonymous": false,
      "inputs": [
        {
          "indexed": true,
          "internalType": "bytes32",
          "name": "role",
          "type": "bytes32"
        },
        {
          "indexed": true,
          "internalType": "address",
          "name": "account",
          "type": "address"
        },
        {
          "indexed": true,
          "internalType": "address",
          "name": "sender",
          "type": "address"
        }
      ],
      "name": "RoleGranted",
      "type": "event"
    },
    {
      "anonymous": false,
      "inputs": [
        {
          "indexed": true,
          "internalType": "bytes32",
          "name": "role",
          "type": "bytes32"
        },
        {
          "indexed": true,
          "internalType": "address",
          "name": "account",
          "type": "address"
        },
        {
          "indexed": true,
          "internalType": "address",
          "name": "sender",
          "type": "address"
        }
      ],
      "name": "RoleRevoked",
      "type": "event"
    },
    {
      "anonymous": false,
      "inputs": [
        {
          "indexed": false,
          "internalType": "uint256",
          "name": "timestamp",
          "type": "uint256"
        },
        {
          "indexed": true,
          "internalType": "address",
          "name": "stakerAddr",
          "type": "address"
        },
        {
          "indexed": true,
          "internalType": "uint256",
          "name": "stakeId",
          "type": "uint256"
        },
        {
          "indexed": false,
          "internalType": "uint256",
          "name": "stakedParas",
          "type": "uint256"
        },
        {
          "indexed": false,
          "internalType": "uint256",
          "name": "stakedDays",
          "type": "uint256"
        }
      ],
      "name": "StartStake",
      "type": "event"
    },
    {
      "inputs": [],
      "name": "DEFAULT_ADMIN_ROLE",
      "outputs": [
        {
          "internalType": "bytes32",
          "name": "",
          "type": "bytes32"
        }
      ],
      "stateMutability": "view",
      "type": "function"
    },
    {
      "inputs": [
        {
          "internalType": "uint256",
          "name": "stakeShares",
          "type": "uint256"
        },
        {
          "internalType": "uint256",
          "name": "beginDay",
          "type": "uint256"
        },
        {
          "internalType": "uint256",
          "name": "endDay",
          "type": "uint256"
        },
        {
          "internalType": "uint256",
          "name": "stakedDays",
          "type": "uint256"
        }
      ],
      "name": "calcPayoutRewards",
      "outputs": [
        {
          "internalType": "uint256",
          "name": "payout",
          "type": "uint256"
        }
      ],
      "stateMutability": "pure",
      "type": "function"
    },
    {
      "inputs": [
        {
          "internalType": "uint256",
          "name": "",
          "type": "uint256"
        }
      ],
      "name": "dailyData",
      "outputs": [
        {
          "internalType": "uint80",
          "name": "dayPayoutTotal",
          "type": "uint80"
        },
        {
          "internalType": "uint80",
          "name": "dayStakeSharesTotal",
          "type": "uint80"
        }
      ],
      "stateMutability": "view",
      "type": "function"
    },
    {
      "inputs": [
        {
          "internalType": "uint256",
          "name": "stakeIndex",
          "type": "uint256"
        }
      ],
      "name": "endStake",
      "outputs": [],
      "stateMutability": "nonpayable",
      "type": "function"
    },
    {
      "inputs": [
        {
          "internalType": "bytes32",
          "name": "role",
          "type": "bytes32"
        }
      ],
      "name": "getRoleAdmin",
      "outputs": [
        {
          "internalType": "bytes32",
          "name": "",
          "type": "bytes32"
        }
      ],
      "stateMutability": "view",
      "type": "function"
    },
    {
      "inputs": [
        {
          "internalType": "address",
          "name": "_usr",
          "type": "address"
        },
        {
          "internalType": "uint256",
          "name": "_stkIdx",
          "type": "uint256"
        }
      ],
      "name": "getStakeRewards",
      "outputs": [
        {
          "internalType": "uint256",
          "name": "stakeReturn",
          "type": "uint256"
        },
        {
          "internalType": "uint256",
          "name": "payout",
          "type": "uint256"
        }
      ],
      "stateMutability": "view",
      "type": "function"
    },
    {
      "inputs": [
        {
          "internalType": "address",
          "name": "_usr",
          "type": "address"
        }
      ],
      "name": "getUserPosition",
      "outputs": [
        {
          "components": [
            {
              "internalType": "uint256",
              "name": "totalAmount",
              "type": "uint256"
            },
            {
              "internalType": "uint256",
              "name": "rewardDebt",
              "type": "uint256"
            },
            {
              "internalType": "uint256",
              "name": "lastStakeId",
              "type": "uint256"
            },
            {
              "internalType": "uint256",
              "name": "stakeSharesTotal",
              "type": "uint256"
            },
            {
              "components": [
                {
                  "internalType": "uint256",
                  "name": "stakeId",
                  "type": "uint256"
                },
                {
                  "internalType": "uint256",
                  "name": "stakedParas",
                  "type": "uint256"
                },
                {
                  "internalType": "uint256",
                  "name": "stakeShares",
                  "type": "uint256"
                },
                {
                  "internalType": "uint256",
                  "name": "pooledDay",
                  "type": "uint256"
                },
                {
                  "internalType": "uint256",
                  "name": "stakedDays",
                  "type": "uint256"
                }
              ],
              "internalType": "struct Utilities.Stake[]",
              "name": "stakes",
              "type": "tuple[]"
            }
          ],
          "internalType": "struct Utilities.UserPosition",
          "name": "",
          "type": "tuple"
        }
      ],
      "stateMutability": "view",
      "type": "function"
    },
    {
      "inputs": [
        {
          "internalType": "bytes32",
          "name": "role",
          "type": "bytes32"
        },
        {
          "internalType": "address",
          "name": "account",
          "type": "address"
        }
      ],
      "name": "grantRole",
      "outputs": [],
      "stateMutability": "nonpayable",
      "type": "function"
    },
    {
      "inputs": [
        {
          "internalType": "bytes32",
          "name": "role",
          "type": "bytes32"
        },
        {
          "internalType": "address",
          "name": "account",
          "type": "address"
        }
      ],
      "name": "hasRole",
      "outputs": [
        {
          "internalType": "bool",
          "name": "",
          "type": "bool"
        }
      ],
      "stateMutability": "view",
      "type": "function"
    },
    {
      "inputs": [
        {
          "internalType": "bytes32",
          "name": "role",
          "type": "bytes32"
        },
        {
          "internalType": "address",
          "name": "account",
          "type": "address"
        }
      ],
      "name": "renounceRole",
      "outputs": [],
      "stateMutability": "nonpayable",
      "type": "function"
    },
    {
      "inputs": [
        {
          "internalType": "bytes32",
          "name": "role",
          "type": "bytes32"
        },
        {
          "internalType": "address",
          "name": "account",
          "type": "address"
        }
      ],
      "name": "revokeRole",
      "outputs": [],
      "stateMutability": "nonpayable",
      "type": "function"
    },
    {
      "inputs": [
        {
          "internalType": "uint256",
          "name": "newStakedParas",
          "type": "uint256"
        },
        {
          "internalType": "uint256",
          "name": "newStakedDays",
          "type": "uint256"
        }
      ],
      "name": "stake",
      "outputs": [],
      "stateMutability": "nonpayable",
      "type": "function"
    },
    {
      "inputs": [
        {
          "internalType": "bytes4",
          "name": "interfaceId",
          "type": "bytes4"
        }
      ],
      "name": "supportsInterface",
      "outputs": [
        {
          "internalType": "bool",
          "name": "",
          "type": "bool"
        }
      ],
      "stateMutability": "view",
      "type": "function"
    },
    {
      "inputs": [
        {
          "internalType": "address",
          "name": "",
          "type": "address"
        }
      ],
      "name": "userPositions",
      "outputs": [
        {
          "internalType": "uint256",
          "name": "totalAmount",
          "type": "uint256"
        },
        {
          "internalType": "uint256",
          "name": "rewardDebt",
          "type": "uint256"
        },
        {
          "internalType": "uint256",
          "name": "lastStakeId",
          "type": "uint256"
        },
        {
          "internalType": "uint256",
          "name": "stakeSharesTotal",
          "type": "uint256"
        }
      ],
      "stateMutability": "view",
      "type": "function"
    },
    {
      "inputs": [],
      "name": "virtualPool",
      "outputs": [
        {
          "internalType": "uint256",
          "name": "totalPooled",
          "type": "uint256"
        },
        {
          "internalType": "uint256",
          "name": "rewardsPerSecond",
          "type": "uint256"
        },
        {
          "internalType": "uint256",
          "name": "accParaPerShare",
          "type": "uint256"
        },
        {
          "internalType": "uint256",
          "name": "lastRewardTime",
          "type": "uint256"
        }
      ],
      "stateMutability": "view",
      "type": "function"
    }
  ],
  "bytecode": "0x60c06040523480156200001157600080fd5b50604051620032f3380380620032f38339818101604052810190620000379190620003b0565b6200004c6000801b336200010f60201b60201c565b8273ffffffffffffffffffffffffffffffffffffffff1660808173ffffffffffffffffffffffffffffffffffffffff168152505082600760006101000a81548173ffffffffffffffffffffffffffffffffffffffff021916908373ffffffffffffffffffffffffffffffffffffffff1602179055508073ffffffffffffffffffffffffffffffffffffffff1660a08173ffffffffffffffffffffffffffffffffffffffff168152505062000106826200020060201b60201c565b505050620004b5565b6200012182826200029960201b60201c565b620001fc57600160008084815260200190815260200160002060000160008373ffffffffffffffffffffffffffffffffffffffff1673ffffffffffffffffffffffffffffffffffffffff16815260200190815260200160002060006101000a81548160ff021916908315150217905550620001a16200030360201b60201c565b73ffffffffffffffffffffffffffffffffffffffff168173ffffffffffffffffffffffffffffffffffffffff16837f2f8788117e7eff1d82e926ec794901d17c78024a50270940304540a733656f0d60405160405180910390a45b5050565b6000811162000246576040517f08c379a00000000000000000000000000000000000000000000000000000000081526004016200023d9062000493565b60405180910390fd5b604051806080016040528060008152602001828152602001600081526020014281525060026000820151816000015560208201518160010155604082015181600201556060820151816003015590505050565b600080600084815260200190815260200160002060000160008373ffffffffffffffffffffffffffffffffffffffff1673ffffffffffffffffffffffffffffffffffffffff16815260200190815260200160002060009054906101000a900460ff16905092915050565b600033905090565b600080fd5b600073ffffffffffffffffffffffffffffffffffffffff82169050919050565b60006200033d8262000310565b9050919050565b6200034f8162000330565b81146200035b57600080fd5b50565b6000815190506200036f8162000344565b92915050565b6000819050919050565b6200038a8162000375565b81146200039657600080fd5b50565b600081519050620003aa816200037f565b92915050565b600080600060608486031215620003cc57620003cb6200030b565b5b6000620003dc868287016200035e565b9350506020620003ef8682870162000399565b925050604062000402868287016200035e565b9150509250925092565b600082825260208201905092915050565b7f416464506f6f6c204661696c65643a20696e76616c696420726577617264207060008201527f6572207365636f6e642e00000000000000000000000000000000000000000000602082015250565b60006200047b602a836200040c565b915062000488826200041d565b604082019050919050565b60006020820190508181036000830152620004ae816200046c565b9050919050565b60805160a051612dfc620004f76000396000610d1301526000818161071801528181610c2401528181610d4d01528181610fcb01526111780152612dfc6000f3fe608060405234801561001057600080fd5b50600436106100f55760003560e01c8063613cf420116100975780639f8c2b40116100665780639f8c2b40146102af578063a217fddf146102e0578063bbd04a82146102fe578063d547741f1461032e576100f5565b8063613cf420146101ff5780637b0472f01461023257806390de68711461024e57806391d148541461027f576100f5565b80632f2ff15d116100d35780632f2ff15d1461017657806336568abe146101925780634ad14583146101ae5780635b7c2dad146101cf576100f5565b806301ffc9a7146100fa5780630cbe28d61461012a578063248a9ca314610146575b600080fd5b610114600480360381019061010f9190611d81565b61034a565b6040516101219190611dc9565b60405180910390f35b610144600480360381019061013f9190611e1a565b6103c4565b005b610160600480360381019061015b9190611e7d565b6107b3565b60405161016d9190611eb9565b60405180910390f35b610190600480360381019061018b9190611f32565b6107d2565b005b6101ac60048036038101906101a79190611f32565b6107f3565b005b6101b6610876565b6040516101c69493929190611f81565b60405180910390f35b6101e960048036038101906101e49190611fc6565b610894565b6040516101f6919061218f565b60405180910390f35b61021960048036038101906102149190611fc6565b6109a6565b6040516102299493929190611f81565b60405180910390f35b61024c600480360381019061024791906121b1565b6109d6565b005b61026860048036038101906102639190611e1a565b610d9a565b604051610276929190612216565b60405180910390f35b61029960048036038101906102949190611f32565b610dea565b6040516102a69190611dc9565b60405180910390f35b6102c960048036038101906102c4919061223f565b610e54565b6040516102d792919061227f565b60405180910390f35b6102e8610ef4565b6040516102f59190611eb9565b60405180910390f35b610318600480360381019061031391906122a8565b610efb565b604051610325919061230f565b60405180910390f35b61034860048036038101906103439190611f32565b610f34565b005b60007f7965db0b000000000000000000000000000000000000000000000000000000007bffffffffffffffffffffffffffffffffffffffffffffffffffffffff1916827bffffffffffffffffffffffffffffffffffffffffffffffffffffffff191614806103bd57506103bc82610f55565b5b9050919050565b6000600160003373ffffffffffffffffffffffffffffffffffffffff1673ffffffffffffffffffffffffffffffffffffffff168152602001908152602001600020905060008160040190506000818054905003610456576040517f08c379a000000000000000000000000000000000000000000000000000000000815260040161044d90612387565b60405180910390fd5b8080549050831061049c576040517f08c379a0000000000000000000000000000000000000000000000000000000008152600401610493906123f3565b60405180910390fd5b60008184815481106104b1576104b0612413565b5b9060005260206000209060050201905060008062015180426104d391906124a0565b90508260030154816104e591906124d1565b9150826004015482106104fe5782600401549150610539565b6040517f08c379a000000000000000000000000000000000000000000000000000000000815260040161053090612551565b60405180910390fd5b610541610fbf565b5082600101546002600001600082825461055b91906124d1565b92505081905550670de0b6b3a76400006002800154866000015461057f9190612571565b61058991906124a0565b8560010181905550600080600090506106a4876040518060a00160405290816000820154815260200160018201548152602001600282015481526020016003820154815260200160048201805480602002602001604051908101604052809291908181526020016000905b8282101561065857838290600052602060002090600502016040518060a001604052908160008201548152602001600182015481526020016002820154815260200160038201548152602001600482015481525050815260200190600101906105f4565b5050505081525050866040518060a0016040529081600082015481526020016001820154815260200160028201548152602001600382015481526020016004820154815250508661112d565b80925081935050506106b687866112e2565b873373ffffffffffffffffffffffffffffffffffffffff167f6d66fda0d35033e7f6dfae3680a20ca69d12ac96c9d2fc703e7651712c914bc9428488604051610701939291906125b3565b60405180910390a36000821461075d5761075c33837f000000000000000000000000000000000000000000000000000000000000000073ffffffffffffffffffffffffffffffffffffffff166113249092919063ffffffff16565b5b8588815481106107705761076f612413565b5b9060005260206000209060050201600080820160009055600182016000905560028201600090556003820160009055600482016000905550505050505050505050565b6000806000838152602001908152602001600020600101549050919050565b6107db826107b3565b6107e4816113aa565b6107ee83836113be565b505050565b6107fb61149e565b73ffffffffffffffffffffffffffffffffffffffff168173ffffffffffffffffffffffffffffffffffffffff1614610868576040517f08c379a000000000000000000000000000000000000000000000000000000000815260040161085f9061265c565b60405180910390fd5b61087282826114a6565b5050565b60028060000154908060010154908060020154908060030154905084565b61089c611ccd565b600160008373ffffffffffffffffffffffffffffffffffffffff1673ffffffffffffffffffffffffffffffffffffffff1681526020019081526020016000206040518060a00160405290816000820154815260200160018201548152602001600282015481526020016003820154815260200160048201805480602002602001604051908101604052809291908181526020016000905b8282101561099757838290600052602060002090600502016040518060a00160405290816000820154815260200160018201548152602001600282015481526020016003820154815260200160048201548152505081526020019060010190610933565b50505050815250509050919050565b60016020528060005260406000206000915090508060000154908060010154908060020154908060030154905084565b60008203610a19576040517f08c379a0000000000000000000000000000000000000000000000000000000008152600401610a10906126c8565b60405180910390fd5b601c811015610a5d576040517f08c379a0000000000000000000000000000000000000000000000000000000008152600401610a549061275a565b60405180910390fd5b610b48811115610aa2576040517f08c379a0000000000000000000000000000000000000000000000000000000008152600401610a99906127ec565b60405180910390fd5b6000610aac610fbf565b90506000610aba8484611587565b90506000600160003373ffffffffffffffffffffffffffffffffffffffff1673ffffffffffffffffffffffffffffffffffffffff16815260200190815260200160002090506001816002016000828254610b14919061280c565b9250508190555081816003016000828254610b2f919061280c565b9250508190555084816000016000828254610b4a919061280c565b92505081905550670de0b6b3a764000083604001518260000154610b6e9190612571565b610b7891906124a0565b816001018190555060006201518042610b9191906124a0565b9050600082600201549050610bad83600401828987868b611635565b803373ffffffffffffffffffffffffffffffffffffffff167fdedde42bc62ffb5fe7ce5cacd663e66ffbac8b873462e54d8e5b292a05efaf7f428a8a604051610bf8939291906125b3565b60405180910390a38660026000016000828254610c15919061280c565b92505081905550610c693330897f000000000000000000000000000000000000000000000000000000000000000073ffffffffffffffffffffffffffffffffffffffff166116c2909392919063ffffffff16565b600760009054906101000a900473ffffffffffffffffffffffffffffffffffffffff1673ffffffffffffffffffffffffffffffffffffffff166342966c68606460218a610cb69190612571565b610cc091906124a0565b6040518263ffffffff1660e01b8152600401610cdc919061230f565b600060405180830381600087803b158015610cf657600080fd5b505af1158015610d0a573d6000803e3d6000fd5b50505050610d917f0000000000000000000000000000000000000000000000000000000000000000606460218a610d419190612571565b610d4b91906124a0565b7f000000000000000000000000000000000000000000000000000000000000000073ffffffffffffffffffffffffffffffffffffffff166113249092919063ffffffff16565b50505050505050565b60066020528060005260406000206000915090508060000160009054906101000a900469ffffffffffffffffffff169080600001600a9054906101000a900469ffffffffffffffffffff16905082565b600080600084815260200190815260200160002060000160008373ffffffffffffffffffffffffffffffffffffffff1673ffffffffffffffffffffffffffffffffffffffff16815260200190815260200160002060009054906101000a900460ff16905092915050565b6000806000610e6285610894565b9050600081608001518581518110610e7d57610e7c612413565b5b6020026020010151905060006201518042610e9891906124a0565b90506000826060015182610eac91906124d1565b905082608001518110610ec55782608001519050610ed5565b6000809550955050505050610eed565b610ee084848361112d565b8096508197505050505050505b9250929050565b6000801b81565b600084828585610f0b91906124d1565b610f1591906124a0565b610f1f9190612571565b81610f2a919061280c565b9050949350505050565b610f3d826107b3565b610f46816113aa565b610f5083836114a6565b505050565b60007f01ffc9a7000000000000000000000000000000000000000000000000000000007bffffffffffffffffffffffffffffffffffffffffffffffffffffffff1916827bffffffffffffffffffffffffffffffffffffffffffffffffffffffff1916149050919050565b610fc7611cfc565b60007f000000000000000000000000000000000000000000000000000000000000000073ffffffffffffffffffffffffffffffffffffffff166370a08231306040518263ffffffff1660e01b8152600401611022919061284f565b602060405180830381865afa15801561103f573d6000803e3d6000fd5b505050506040513d601f19601f82011682018060405250810190611063919061287f565b90506002600301544211156111285760008111156110e15760006002600301544261108e91906124d1565b90506000600260010154826110a39190612571565b905082670de0b6b3a7640000826110ba9190612571565b6110c491906124a0565b6002800160008282546110d7919061280c565b9250508190555050505b42600260030181905550600260405180608001604052908160008201548152602001600182015481526020016002820154815260200160038201548152505091505061112a565b505b90565b6000806111578460400151856060015185876060015161114d919061280c565b8760800151610efb565b9050808460200151611169919061280c565b915060006002800154905060007f000000000000000000000000000000000000000000000000000000000000000073ffffffffffffffffffffffffffffffffffffffff166370a08231306040518263ffffffff1660e01b81526004016111cf919061284f565b602060405180830381865afa1580156111ec573d6000803e3d6000fd5b505050506040513d601f19601f82011682018060405250810190611210919061287f565b905060026003015442118015611227575060008114155b156112855760006002600301544261123f91906124d1565b90506000600260010154826112549190612571565b905082670de0b6b3a76400008261126b9190612571565b61127591906124a0565b84611280919061280c565b935050505b60008760200151670de0b6b3a7640000848a600001516112a59190612571565b6112af91906124a0565b6112b991906124d1565b905080856112c7919061280c565b945080846112d5919061280c565b9350505050935093915050565b80600101548260000160008282546112fa91906124d1565b92505081905550806002015482600301600082825461131991906124d1565b925050819055505050565b6113a58363a9059cbb60e01b84846040516024016113439291906128ac565b604051602081830303815290604052907bffffffffffffffffffffffffffffffffffffffffffffffffffffffff19166020820180517bffffffffffffffffffffffffffffffffffffffffffffffffffffffff838183161783525050505061174b565b505050565b6113bb816113b661149e565b611812565b50565b6113c88282610dea565b61149a57600160008084815260200190815260200160002060000160008373ffffffffffffffffffffffffffffffffffffffff1673ffffffffffffffffffffffffffffffffffffffff16815260200190815260200160002060006101000a81548160ff02191690831515021790555061143f61149e565b73ffffffffffffffffffffffffffffffffffffffff168173ffffffffffffffffffffffffffffffffffffffff16837f2f8788117e7eff1d82e926ec794901d17c78024a50270940304540a733656f0d60405160405180910390a45b5050565b600033905090565b6114b08282610dea565b1561158357600080600084815260200190815260200160002060000160008373ffffffffffffffffffffffffffffffffffffffff1673ffffffffffffffffffffffffffffffffffffffff16815260200190815260200160002060006101000a81548160ff02191690831515021790555061152861149e565b73ffffffffffffffffffffffffffffffffffffffff168173ffffffffffffffffffffffffffffffffffffffff16837ff6391f5c32d9c69d2a47ea670b442974b53935d1edc7fd64eb21e047a839171b60405160405180910390a45b5050565b600080601c8361159791906124d1565b90506000670de0b6b3a764000063017d78406115b39190612571565b8511156115d757670de0b6b3a764000063017d78406115d29190612571565b6115d9565b845b9050670de0b6b3a764000063017d78406115f39190612571565b81866115ff9190612571565b61160991906124a0565b606783876116179190612571565b61162191906124a0565b61162b919061280c565b9250505092915050565b856040518060a0016040528087815260200186815260200185815260200184815260200183815250908060018154018082558091505060019003906000526020600020906005020160009091909190915060008201518160000155602082015181600101556040820151816002015560608201518160030155608082015181600401555050505050505050565b611745846323b872dd60e01b8585856040516024016116e3939291906128d5565b604051602081830303815290604052907bffffffffffffffffffffffffffffffffffffffffffffffffffffffff19166020820180517bffffffffffffffffffffffffffffffffffffffffffffffffffffffff838183161783525050505061174b565b50505050565b60006117ad826040518060400160405280602081526020017f5361666545524332303a206c6f772d6c6576656c2063616c6c206661696c65648152508573ffffffffffffffffffffffffffffffffffffffff166118979092919063ffffffff16565b905060008151111561180d57808060200190518101906117cd9190612938565b61180c576040517f08c379a0000000000000000000000000000000000000000000000000000000008152600401611803906129d7565b60405180910390fd5b5b505050565b61181c8282610dea565b61189357611829816118af565b6118378360001c60206118dc565b604051602001611848929190612b00565b6040516020818303038152906040526040517f08c379a000000000000000000000000000000000000000000000000000000000815260040161188a9190612b84565b60405180910390fd5b5050565b60606118a68484600085611b18565b90509392505050565b60606118d58273ffffffffffffffffffffffffffffffffffffffff16601460ff166118dc565b9050919050565b6060600060028360026118ef9190612571565b6118f9919061280c565b67ffffffffffffffff81111561191257611911612ba6565b5b6040519080825280601f01601f1916602001820160405280156119445781602001600182028036833780820191505090505b5090507f30000000000000000000000000000000000000000000000000000000000000008160008151811061197c5761197b612413565b5b60200101907effffffffffffffffffffffffffffffffffffffffffffffffffffffffffffff1916908160001a9053507f7800000000000000000000000000000000000000000000000000000000000000816001815181106119e0576119df612413565b5b60200101907effffffffffffffffffffffffffffffffffffffffffffffffffffffffffffff1916908160001a90535060006001846002611a209190612571565b611a2a919061280c565b90505b6001811115611aca577f3031323334353637383961626364656600000000000000000000000000000000600f861660108110611a6c57611a6b612413565b5b1a60f81b828281518110611a8357611a82612413565b5b60200101907effffffffffffffffffffffffffffffffffffffffffffffffffffffffffffff1916908160001a905350600485901c945080611ac390612bd5565b9050611a2d565b5060008414611b0e576040517f08c379a0000000000000000000000000000000000000000000000000000000008152600401611b0590612c4a565b60405180910390fd5b8091505092915050565b606082471015611b5d576040517f08c379a0000000000000000000000000000000000000000000000000000000008152600401611b5490612cdc565b60405180910390fd5b6000808673ffffffffffffffffffffffffffffffffffffffff168587604051611b869190612d43565b60006040518083038185875af1925050503d8060008114611bc3576040519150601f19603f3d011682016040523d82523d6000602084013e611bc8565b606091505b5091509150611bd987838387611be5565b92505050949350505050565b60608315611c47576000835103611c3f57611bff85611c5a565b611c3e576040517f08c379a0000000000000000000000000000000000000000000000000000000008152600401611c3590612da6565b60405180910390fd5b5b829050611c52565b611c518383611c7d565b5b949350505050565b6000808273ffffffffffffffffffffffffffffffffffffffff163b119050919050565b600082511115611c905781518083602001fd5b806040517f08c379a0000000000000000000000000000000000000000000000000000000008152600401611cc49190612b84565b60405180910390fd5b6040518060a0016040528060008152602001600081526020016000815260200160008152602001606081525090565b6040518060800160405280600081526020016000815260200160008152602001600081525090565b600080fd5b60007fffffffff0000000000000000000000000000000000000000000000000000000082169050919050565b611d5e81611d29565b8114611d6957600080fd5b50565b600081359050611d7b81611d55565b92915050565b600060208284031215611d9757611d96611d24565b5b6000611da584828501611d6c565b91505092915050565b60008115159050919050565b611dc381611dae565b82525050565b6000602082019050611dde6000830184611dba565b92915050565b6000819050919050565b611df781611de4565b8114611e0257600080fd5b50565b600081359050611e1481611dee565b92915050565b600060208284031215611e3057611e2f611d24565b5b6000611e3e84828501611e05565b91505092915050565b6000819050919050565b611e5a81611e47565b8114611e6557600080fd5b50565b600081359050611e7781611e51565b92915050565b600060208284031215611e9357611e92611d24565b5b6000611ea184828501611e68565b91505092915050565b611eb381611e47565b82525050565b6000602082019050611ece6000830184611eaa565b92915050565b600073ffffffffffffffffffffffffffffffffffffffff82169050919050565b6000611eff82611ed4565b9050919050565b611f0f81611ef4565b8114611f1a57600080fd5b50565b600081359050611f2c81611f06565b92915050565b60008060408385031215611f4957611f48611d24565b5b6000611f5785828601611e68565b9250506020611f6885828601611f1d565b9150509250929050565b611f7b81611de4565b82525050565b6000608082019050611f966000830187611f72565b611fa36020830186611f72565b611fb06040830185611f72565b611fbd6060830184611f72565b95945050505050565b600060208284031215611fdc57611fdb611d24565b5b6000611fea84828501611f1d565b91505092915050565b611ffc81611de4565b82525050565b600081519050919050565b600082825260208201905092915050565b6000819050602082019050919050565b60a0820160008201516120446000850182611ff3565b5060208201516120576020850182611ff3565b50604082015161206a6040850182611ff3565b50606082015161207d6060850182611ff3565b5060808201516120906080850182611ff3565b50505050565b60006120a2838361202e565b60a08301905092915050565b6000602082019050919050565b60006120c682612002565b6120d0818561200d565b93506120db8361201e565b8060005b8381101561210c5781516120f38882612096565b97506120fe836120ae565b9250506001810190506120df565b5085935050505092915050565b600060a0830160008301516121316000860182611ff3565b5060208301516121446020860182611ff3565b5060408301516121576040860182611ff3565b50606083015161216a6060860182611ff3565b506080830151848203608086015261218282826120bb565b9150508091505092915050565b600060208201905081810360008301526121a98184612119565b905092915050565b600080604083850312156121c8576121c7611d24565b5b60006121d685828601611e05565b92505060206121e785828601611e05565b9150509250929050565b600069ffffffffffffffffffff82169050919050565b612210816121f1565b82525050565b600060408201905061222b6000830185612207565b6122386020830184612207565b9392505050565b6000806040838503121561225657612255611d24565b5b600061226485828601611f1d565b925050602061227585828601611e05565b9150509250929050565b60006040820190506122946000830185611f72565b6122a16020830184611f72565b9392505050565b600080600080608085870312156122c2576122c1611d24565b5b60006122d087828801611e05565b94505060206122e187828801611e05565b93505060406122f287828801611e05565b925050606061230387828801611e05565b91505092959194509250565b60006020820190506123246000830184611f72565b92915050565b600082825260208201905092915050565b7f504152413a20456d707479207374616b65206c69737400000000000000000000600082015250565b600061237160168361232a565b915061237c8261233b565b602082019050919050565b600060208201905081810360008301526123a081612364565b9050919050565b7f504152413a207374616b65496e64657820696e76616c69640000000000000000600082015250565b60006123dd60188361232a565b91506123e8826123a7565b602082019050919050565b6000602082019050818103600083015261240c816123d0565b9050919050565b7f4e487b7100000000000000000000000000000000000000000000000000000000600052603260045260246000fd5b7f4e487b7100000000000000000000000000000000000000000000000000000000600052601260045260246000fd5b7f4e487b7100000000000000000000000000000000000000000000000000000000600052601160045260246000fd5b60006124ab82611de4565b91506124b683611de4565b9250826124c6576124c5612442565b5b828204905092915050565b60006124dc82611de4565b91506124e783611de4565b92508282039050818111156124ff576124fe612471565b5b92915050565b7f504152413a204c6f636b6564207374616b650000000000000000000000000000600082015250565b600061253b60128361232a565b915061254682612505565b602082019050919050565b6000602082019050818103600083015261256a8161252e565b9050919050565b600061257c82611de4565b915061258783611de4565b925082820261259581611de4565b915082820484148315176125ac576125ab612471565b5b5092915050565b60006060820190506125c86000830186611f72565b6125d56020830185611f72565b6125e26040830184611f72565b949350505050565b7f416363657373436f6e74726f6c3a2063616e206f6e6c792072656e6f756e636560008201527f20726f6c657320666f722073656c660000000000000000000000000000000000602082015250565b6000612646602f8361232a565b9150612651826125ea565b604082019050919050565b6000602082019050818103600083015261267581612639565b9050919050565b7f504152413a20616d6f756e74206d757374206265206e6f6e2d7a65726f000000600082015250565b60006126b2601d8361232a565b91506126bd8261267c565b602082019050919050565b600060208201905081810360008301526126e1816126a5565b9050919050565b7f504152413a206e65775374616b656444617973206c6f776572207468616e206d60008201527f696e696d756d0000000000000000000000000000000000000000000000000000602082015250565b600061274460268361232a565b915061274f826126e8565b604082019050919050565b6000602082019050818103600083015261277381612737565b9050919050565b7f504152413a206e65775374616b65644461797320686967686572207468616e2060008201527f6d6178696d756d00000000000000000000000000000000000000000000000000602082015250565b60006127d660278361232a565b91506127e18261277a565b604082019050919050565b60006020820190508181036000830152612805816127c9565b9050919050565b600061281782611de4565b915061282283611de4565b925082820190508082111561283a57612839612471565b5b92915050565b61284981611ef4565b82525050565b60006020820190506128646000830184612840565b92915050565b60008151905061287981611dee565b92915050565b60006020828403121561289557612894611d24565b5b60006128a38482850161286a565b91505092915050565b60006040820190506128c16000830185612840565b6128ce6020830184611f72565b9392505050565b60006060820190506128ea6000830186612840565b6128f76020830185612840565b6129046040830184611f72565b949350505050565b61291581611dae565b811461292057600080fd5b50565b6000815190506129328161290c565b92915050565b60006020828403121561294e5761294d611d24565b5b600061295c84828501612923565b91505092915050565b7f5361666545524332303a204552433230206f7065726174696f6e20646964206e60008201527f6f74207375636365656400000000000000000000000000000000000000000000602082015250565b60006129c1602a8361232a565b91506129cc82612965565b604082019050919050565b600060208201905081810360008301526129f0816129b4565b9050919050565b600081905092915050565b7f416363657373436f6e74726f6c3a206163636f756e7420000000000000000000600082015250565b6000612a386017836129f7565b9150612a4382612a02565b601782019050919050565b600081519050919050565b60005b83811015612a77578082015181840152602081019050612a5c565b60008484015250505050565b6000612a8e82612a4e565b612a9881856129f7565b9350612aa8818560208601612a59565b80840191505092915050565b7f206973206d697373696e6720726f6c6520000000000000000000000000000000600082015250565b6000612aea6011836129f7565b9150612af582612ab4565b601182019050919050565b6000612b0b82612a2b565b9150612b178285612a83565b9150612b2282612add565b9150612b2e8284612a83565b91508190509392505050565b6000601f19601f8301169050919050565b6000612b5682612a4e565b612b60818561232a565b9350612b70818560208601612a59565b612b7981612b3a565b840191505092915050565b60006020820190508181036000830152612b9e8184612b4b565b905092915050565b7f4e487b7100000000000000000000000000000000000000000000000000000000600052604160045260246000fd5b6000612be082611de4565b915060008203612bf357612bf2612471565b5b600182039050919050565b7f537472696e67733a20686578206c656e67746820696e73756666696369656e74600082015250565b6000612c3460208361232a565b9150612c3f82612bfe565b602082019050919050565b60006020820190508181036000830152612c6381612c27565b9050919050565b7f416464726573733a20696e73756666696369656e742062616c616e636520666f60008201527f722063616c6c0000000000000000000000000000000000000000000000000000602082015250565b6000612cc660268361232a565b9150612cd182612c6a565b604082019050919050565b60006020820190508181036000830152612cf581612cb9565b9050919050565b600081519050919050565b600081905092915050565b6000612d1d82612cfc565b612d278185612d07565b9350612d37818560208601612a59565b80840191505092915050565b6000612d4f8284612d12565b915081905092915050565b7f416464726573733a2063616c6c20746f206e6f6e2d636f6e7472616374000000600082015250565b6000612d90601d8361232a565b9150612d9b82612d5a565b602082019050919050565b60006020820190508181036000830152612dbf81612d83565b905091905056fea26469706673582212201cd2547411ba6bf86cf87e47d44eaea1156d7be7e34bdd4430beca8227f003dc64736f6c63430008120033",
  "linkReferences": {},
  "deployedLinkReferences": {}
}