{
  "_format": "hh-sol-artifact-1",
  "contractName": "Utilities",
  "sourceName": "contracts/Utilities.sol",
  "abi": [
    {
      "anonymous": false,
      "inputs": [
        {
          "indexed": false,
          "internalType": "uint256",
          "name": "timestamp",
          "type": "uint256"
        },
        {
          "indexed": true,
          "internalType": "address",
          "name": "stakerAddr",
          "type": "address"
        },
        {
          "indexed": true,
          "internalType": "uint256",
          "name": "stakeId",
          "type": "uint256"
        },
        {
          "indexed": false,
          "internalType": "uint256",
          "name": "payout",
          "type": "uint256"
        },
        {
          "indexed": false,
          "internalType": "uint256",
          "name": "servedDays",
          "type": "uint256"
        }
      ],
      "name": "EndStake",
      "type": "event"
    },
    {
      "anonymous": false,
      "inputs": [
        {
          "indexed": true,
          "internalType": "bytes32",
          "name": "role",
          "type": "bytes32"
        },
        {
          "indexed": true,
          "internalType": "bytes32",
          "name": "previousAdminRole",
          "type": "bytes32"
        },
        {
          "indexed": true,
          "internalType": "bytes32",
          "name": "newAdminRole",
          "type": "bytes32"
        }
      ],
      "name": "RoleAdminChanged",
      "type": "event"
    },
    {
      "anonymous": false,
      "inputs": [
        {
          "indexed": true,
          "internalType": "bytes32",
          "name": "role",
          "type": "bytes32"
        },
        {
          "indexed": true,
          "internalType": "address",
          "name": "account",
          "type": "address"
        },
        {
          "indexed": true,
          "internalType": "address",
          "name": "sender",
          "type": "address"
        }
      ],
      "name": "RoleGranted",
      "type": "event"
    },
    {
      "anonymous": false,
      "inputs": [
        {
          "indexed": true,
          "internalType": "bytes32",
          "name": "role",
          "type": "bytes32"
        },
        {
          "indexed": true,
          "internalType": "address",
          "name": "account",
          "type": "address"
        },
        {
          "indexed": true,
          "internalType": "address",
          "name": "sender",
          "type": "address"
        }
      ],
      "name": "RoleRevoked",
      "type": "event"
    },
    {
      "anonymous": false,
      "inputs": [
        {
          "indexed": false,
          "internalType": "uint256",
          "name": "timestamp",
          "type": "uint256"
        },
        {
          "indexed": true,
          "internalType": "address",
          "name": "stakerAddr",
          "type": "address"
        },
        {
          "indexed": true,
          "internalType": "uint256",
          "name": "stakeId",
          "type": "uint256"
        },
        {
          "indexed": false,
          "internalType": "uint256",
          "name": "stakedParas",
          "type": "uint256"
        },
        {
          "indexed": false,
          "internalType": "uint256",
          "name": "stakedDays",
          "type": "uint256"
        }
      ],
      "name": "StartStake",
      "type": "event"
    },
    {
      "inputs": [],
      "name": "DEFAULT_ADMIN_ROLE",
      "outputs": [
        {
          "internalType": "bytes32",
          "name": "",
          "type": "bytes32"
        }
      ],
      "stateMutability": "view",
      "type": "function"
    },
    {
      "inputs": [
        {
          "internalType": "uint256",
          "name": "",
          "type": "uint256"
        }
      ],
      "name": "dailyData",
      "outputs": [
        {
          "internalType": "uint80",
          "name": "dayPayoutTotal",
          "type": "uint80"
        },
        {
          "internalType": "uint80",
          "name": "dayStakeSharesTotal",
          "type": "uint80"
        }
      ],
      "stateMutability": "view",
      "type": "function"
    },
    {
      "inputs": [
        {
          "internalType": "bytes32",
          "name": "role",
          "type": "bytes32"
        }
      ],
      "name": "getRoleAdmin",
      "outputs": [
        {
          "internalType": "bytes32",
          "name": "",
          "type": "bytes32"
        }
      ],
      "stateMutability": "view",
      "type": "function"
    },
    {
      "inputs": [
        {
          "internalType": "bytes32",
          "name": "role",
          "type": "bytes32"
        },
        {
          "internalType": "address",
          "name": "account",
          "type": "address"
        }
      ],
      "name": "grantRole",
      "outputs": [],
      "stateMutability": "nonpayable",
      "type": "function"
    },
    {
      "inputs": [
        {
          "internalType": "bytes32",
          "name": "role",
          "type": "bytes32"
        },
        {
          "internalType": "address",
          "name": "account",
          "type": "address"
        }
      ],
      "name": "hasRole",
      "outputs": [
        {
          "internalType": "bool",
          "name": "",
          "type": "bool"
        }
      ],
      "stateMutability": "view",
      "type": "function"
    },
    {
      "inputs": [
        {
          "internalType": "bytes32",
          "name": "role",
          "type": "bytes32"
        },
        {
          "internalType": "address",
          "name": "account",
          "type": "address"
        }
      ],
      "name": "renounceRole",
      "outputs": [],
      "stateMutability": "nonpayable",
      "type": "function"
    },
    {
      "inputs": [
        {
          "internalType": "bytes32",
          "name": "role",
          "type": "bytes32"
        },
        {
          "internalType": "address",
          "name": "account",
          "type": "address"
        }
      ],
      "name": "revokeRole",
      "outputs": [],
      "stateMutability": "nonpayable",
      "type": "function"
    },
    {
      "inputs": [
        {
          "internalType": "bytes4",
          "name": "interfaceId",
          "type": "bytes4"
        }
      ],
      "name": "supportsInterface",
      "outputs": [
        {
          "internalType": "bool",
          "name": "",
          "type": "bool"
        }
      ],
      "stateMutability": "view",
      "type": "function"
    },
    {
      "inputs": [
        {
          "internalType": "address",
          "name": "",
          "type": "address"
        }
      ],
      "name": "userPositions",
      "outputs": [
        {
          "internalType": "uint256",
          "name": "totalAmount",
          "type": "uint256"
        },
        {
          "internalType": "uint256",
          "name": "rewardDebt",
          "type": "uint256"
        },
        {
          "internalType": "uint256",
          "name": "lastStakeId",
          "type": "uint256"
        },
        {
          "internalType": "uint256",
          "name": "stakeSharesTotal",
          "type": "uint256"
        }
      ],
      "stateMutability": "view",
      "type": "function"
    },
    {
      "inputs": [],
      "name": "virtualPool",
      "outputs": [
        {
          "internalType": "uint256",
          "name": "totalPooled",
          "type": "uint256"
        },
        {
          "internalType": "uint256",
          "name": "rewardsPerSecond",
          "type": "uint256"
        },
        {
          "internalType": "uint256",
          "name": "accParaPerShare",
          "type": "uint256"
        },
        {
          "internalType": "uint256",
          "name": "lastRewardTime",
          "type": "uint256"
        }
      ],
      "stateMutability": "view",
      "type": "function"
    }
  ],
  "bytecode": "0x608060405234801561001057600080fd5b50611109806100206000396000f3fe608060405234801561001057600080fd5b506004361061009e5760003560e01c8063613cf42011610066578063613cf4201461015c57806390de68711461018f57806391d14854146101c0578063a217fddf146101f0578063d547741f1461020e5761009e565b806301ffc9a7146100a3578063248a9ca3146100d35780632f2ff15d1461010357806336568abe1461011f5780634ad145831461013b575b600080fd5b6100bd60048036038101906100b89190610a29565b61022a565b6040516100ca9190610a71565b60405180910390f35b6100ed60048036038101906100e89190610ac2565b6102a4565b6040516100fa9190610afe565b60405180910390f35b61011d60048036038101906101189190610b77565b6102c3565b005b61013960048036038101906101349190610b77565b6102e4565b005b610143610367565b6040516101539493929190610bd0565b60405180910390f35b61017660048036038101906101719190610c15565b610385565b6040516101869493929190610bd0565b60405180910390f35b6101a960048036038101906101a49190610c6e565b6103b5565b6040516101b7929190610cc0565b60405180910390f35b6101da60048036038101906101d59190610b77565b610405565b6040516101e79190610a71565b60405180910390f35b6101f861046f565b6040516102059190610afe565b60405180910390f35b61022860048036038101906102239190610b77565b610476565b005b60007f7965db0b000000000000000000000000000000000000000000000000000000007bffffffffffffffffffffffffffffffffffffffffffffffffffffffff1916827bffffffffffffffffffffffffffffffffffffffffffffffffffffffff1916148061029d575061029c82610497565b5b9050919050565b6000806000838152602001908152602001600020600101549050919050565b6102cc826102a4565b6102d581610501565b6102df8383610515565b505050565b6102ec6105f5565b73ffffffffffffffffffffffffffffffffffffffff168173ffffffffffffffffffffffffffffffffffffffff1614610359576040517f08c379a000000000000000000000000000000000000000000000000000000000815260040161035090610d6c565b60405180910390fd5b61036382826105fd565b5050565b60028060000154908060010154908060020154908060030154905084565b60016020528060005260406000206000915090508060000154908060010154908060020154908060030154905084565b60066020528060005260406000206000915090508060000160009054906101000a900469ffffffffffffffffffff169080600001600a9054906101000a900469ffffffffffffffffffff16905082565b600080600084815260200190815260200160002060000160008373ffffffffffffffffffffffffffffffffffffffff1673ffffffffffffffffffffffffffffffffffffffff16815260200190815260200160002060009054906101000a900460ff16905092915050565b6000801b81565b61047f826102a4565b61048881610501565b61049283836105fd565b505050565b60007f01ffc9a7000000000000000000000000000000000000000000000000000000007bffffffffffffffffffffffffffffffffffffffffffffffffffffffff1916827bffffffffffffffffffffffffffffffffffffffffffffffffffffffff1916149050919050565b6105128161050d6105f5565b6106de565b50565b61051f8282610405565b6105f157600160008084815260200190815260200160002060000160008373ffffffffffffffffffffffffffffffffffffffff1673ffffffffffffffffffffffffffffffffffffffff16815260200190815260200160002060006101000a81548160ff0219169083151502179055506105966105f5565b73ffffffffffffffffffffffffffffffffffffffff168173ffffffffffffffffffffffffffffffffffffffff16837f2f8788117e7eff1d82e926ec794901d17c78024a50270940304540a733656f0d60405160405180910390a45b5050565b600033905090565b6106078282610405565b156106da57600080600084815260200190815260200160002060000160008373ffffffffffffffffffffffffffffffffffffffff1673ffffffffffffffffffffffffffffffffffffffff16815260200190815260200160002060006101000a81548160ff02191690831515021790555061067f6105f5565b73ffffffffffffffffffffffffffffffffffffffff168173ffffffffffffffffffffffffffffffffffffffff16837ff6391f5c32d9c69d2a47ea670b442974b53935d1edc7fd64eb21e047a839171b60405160405180910390a45b5050565b6106e88282610405565b61075f576106f581610763565b6107038360001c6020610790565b604051602001610714929190610e95565b6040516020818303038152906040526040517f08c379a00000000000000000000000000000000000000000000000000000000081526004016107569190610f19565b60405180910390fd5b5050565b60606107898273ffffffffffffffffffffffffffffffffffffffff16601460ff16610790565b9050919050565b6060600060028360026107a39190610f6a565b6107ad9190610fac565b67ffffffffffffffff8111156107c6576107c5610fe0565b5b6040519080825280601f01601f1916602001820160405280156107f85781602001600182028036833780820191505090505b5090507f3000000000000000000000000000000000000000000000000000000000000000816000815181106108305761082f61100f565b5b60200101907effffffffffffffffffffffffffffffffffffffffffffffffffffffffffffff1916908160001a9053507f7800000000000000000000000000000000000000000000000000000000000000816001815181106108945761089361100f565b5b60200101907effffffffffffffffffffffffffffffffffffffffffffffffffffffffffffff1916908160001a905350600060018460026108d49190610f6a565b6108de9190610fac565b90505b600181111561097e577f3031323334353637383961626364656600000000000000000000000000000000600f8616601081106109205761091f61100f565b5b1a60f81b8282815181106109375761093661100f565b5b60200101907effffffffffffffffffffffffffffffffffffffffffffffffffffffffffffff1916908160001a905350600485901c9450806109779061103e565b90506108e1565b50600084146109c2576040517f08c379a00000000000000000000000000000000000000000000000000000000081526004016109b9906110b3565b60405180910390fd5b8091505092915050565b600080fd5b60007fffffffff0000000000000000000000000000000000000000000000000000000082169050919050565b610a06816109d1565b8114610a1157600080fd5b50565b600081359050610a23816109fd565b92915050565b600060208284031215610a3f57610a3e6109cc565b5b6000610a4d84828501610a14565b91505092915050565b60008115159050919050565b610a6b81610a56565b82525050565b6000602082019050610a866000830184610a62565b92915050565b6000819050919050565b610a9f81610a8c565b8114610aaa57600080fd5b50565b600081359050610abc81610a96565b92915050565b600060208284031215610ad857610ad76109cc565b5b6000610ae684828501610aad565b91505092915050565b610af881610a8c565b82525050565b6000602082019050610b136000830184610aef565b92915050565b600073ffffffffffffffffffffffffffffffffffffffff82169050919050565b6000610b4482610b19565b9050919050565b610b5481610b39565b8114610b5f57600080fd5b50565b600081359050610b7181610b4b565b92915050565b60008060408385031215610b8e57610b8d6109cc565b5b6000610b9c85828601610aad565b9250506020610bad85828601610b62565b9150509250929050565b6000819050919050565b610bca81610bb7565b82525050565b6000608082019050610be56000830187610bc1565b610bf26020830186610bc1565b610bff6040830185610bc1565b610c0c6060830184610bc1565b95945050505050565b600060208284031215610c2b57610c2a6109cc565b5b6000610c3984828501610b62565b91505092915050565b610c4b81610bb7565b8114610c5657600080fd5b50565b600081359050610c6881610c42565b92915050565b600060208284031215610c8457610c836109cc565b5b6000610c9284828501610c59565b91505092915050565b600069ffffffffffffffffffff82169050919050565b610cba81610c9b565b82525050565b6000604082019050610cd56000830185610cb1565b610ce26020830184610cb1565b9392505050565b600082825260208201905092915050565b7f416363657373436f6e74726f6c3a2063616e206f6e6c792072656e6f756e636560008201527f20726f6c657320666f722073656c660000000000000000000000000000000000602082015250565b6000610d56602f83610ce9565b9150610d6182610cfa565b604082019050919050565b60006020820190508181036000830152610d8581610d49565b9050919050565b600081905092915050565b7f416363657373436f6e74726f6c3a206163636f756e7420000000000000000000600082015250565b6000610dcd601783610d8c565b9150610dd882610d97565b601782019050919050565b600081519050919050565b60005b83811015610e0c578082015181840152602081019050610df1565b60008484015250505050565b6000610e2382610de3565b610e2d8185610d8c565b9350610e3d818560208601610dee565b80840191505092915050565b7f206973206d697373696e6720726f6c6520000000000000000000000000000000600082015250565b6000610e7f601183610d8c565b9150610e8a82610e49565b601182019050919050565b6000610ea082610dc0565b9150610eac8285610e18565b9150610eb782610e72565b9150610ec38284610e18565b91508190509392505050565b6000601f19601f8301169050919050565b6000610eeb82610de3565b610ef58185610ce9565b9350610f05818560208601610dee565b610f0e81610ecf565b840191505092915050565b60006020820190508181036000830152610f338184610ee0565b905092915050565b7f4e487b7100000000000000000000000000000000000000000000000000000000600052601160045260246000fd5b6000610f7582610bb7565b9150610f8083610bb7565b9250828202610f8e81610bb7565b91508282048414831517610fa557610fa4610f3b565b5b5092915050565b6000610fb782610bb7565b9150610fc283610bb7565b9250828201905080821115610fda57610fd9610f3b565b5b92915050565b7f4e487b7100000000000000000000000000000000000000000000000000000000600052604160045260246000fd5b7f4e487b7100000000000000000000000000000000000000000000000000000000600052603260045260246000fd5b600061104982610bb7565b91506000820361105c5761105b610f3b565b5b600182039050919050565b7f537472696e67733a20686578206c656e67746820696e73756666696369656e74600082015250565b600061109d602083610ce9565b91506110a882611067565b602082019050919050565b600060208201905081810360008301526110cc81611090565b905091905056fea26469706673582212200d7c25190351e7b9c1163513a757a24a2a17fbe7ea3fb61998f29146a5fe7b6564736f6c63430008120033",
  "linkReferences": {},
  "deployedLinkReferences": {}
}