{
  "_format": "hh-sol-artifact-1",
  "contractName": "Parapad",
  "sourceName": "contracts/Parapad/parapad.sol",
  "abi": [
    {
      "inputs": [
        {
          "internalType": "address",
          "name": "_usdt",
          "type": "address"
        },
        {
          "internalType": "address",
          "name": "_paradox",
          "type": "address"
        }
      ],
      "stateMutability": "nonpayable",
      "type": "constructor"
    },
    {
      "anonymous": false,
      "inputs": [
        {
          "indexed": true,
          "internalType": "address",
          "name": "previousOwner",
          "type": "address"
        },
        {
          "indexed": true,
          "internalType": "address",
          "name": "newOwner",
          "type": "address"
        }
      ],
      "name": "OwnershipTransferred",
      "type": "event"
    },
    {
      "inputs": [
        {
          "internalType": "address",
          "name": "",
          "type": "address"
        }
      ],
      "name": "_claimed",
      "outputs": [
        {
          "internalType": "bool",
          "name": "",
          "type": "bool"
        }
      ],
      "stateMutability": "view",
      "type": "function"
    },
    {
      "inputs": [
        {
          "internalType": "uint256",
          "name": "amount",
          "type": "uint256"
        }
      ],
      "name": "buyParadox",
      "outputs": [],
      "stateMutability": "nonpayable",
      "type": "function"
    },
    {
      "inputs": [],
      "name": "claimVestedParadox",
      "outputs": [],
      "stateMutability": "nonpayable",
      "type": "function"
    },
    {
      "inputs": [
        {
          "internalType": "address",
          "name": "_user",
          "type": "address"
        }
      ],
      "name": "getClaimed",
      "outputs": [
        {
          "internalType": "bool",
          "name": "",
          "type": "bool"
        }
      ],
      "stateMutability": "view",
      "type": "function"
    },
    {
      "inputs": [
        {
          "internalType": "address",
          "name": "",
          "type": "address"
        }
      ],
      "name": "locks",
      "outputs": [
        {
          "internalType": "uint256",
          "name": "total",
          "type": "uint256"
        },
        {
          "internalType": "uint256",
          "name": "paid",
          "type": "uint256"
        },
        {
          "internalType": "uint256",
          "name": "debt",
          "type": "uint256"
        },
        {
          "internalType": "uint256",
          "name": "startTime",
          "type": "uint256"
        }
      ],
      "stateMutability": "view",
      "type": "function"
    },
    {
      "inputs": [],
      "name": "owner",
      "outputs": [
        {
          "internalType": "address",
          "name": "",
          "type": "address"
        }
      ],
      "stateMutability": "view",
      "type": "function"
    },
    {
      "inputs": [],
      "name": "paradoxAddress",
      "outputs": [
        {
          "internalType": "address",
          "name": "",
          "type": "address"
        }
      ],
      "stateMutability": "view",
      "type": "function"
    },
    {
      "inputs": [
        {
          "internalType": "address",
          "name": "_user",
          "type": "address"
        }
      ],
      "name": "pendingVestedParadox",
      "outputs": [
        {
          "internalType": "uint256",
          "name": "",
          "type": "uint256"
        }
      ],
      "stateMutability": "view",
      "type": "function"
    },
    {
      "inputs": [],
      "name": "renounceOwnership",
      "outputs": [],
      "stateMutability": "nonpayable",
      "type": "function"
    },
    {
      "inputs": [
        {
          "internalType": "address",
          "name": "newOwner",
          "type": "address"
        }
      ],
      "name": "transferOwnership",
      "outputs": [],
      "stateMutability": "nonpayable",
      "type": "function"
    },
    {
      "inputs": [
        {
          "internalType": "address",
          "name": "_user",
          "type": "address"
        }
      ],
      "name": "updateClaimed",
      "outputs": [],
      "stateMutability": "nonpayable",
      "type": "function"
    },
    {
      "inputs": [
        {
          "internalType": "address",
          "name": "_user",
          "type": "address"
        },
        {
          "internalType": "uint256",
          "name": "_total",
          "type": "uint256"
        },
        {
          "internalType": "uint256",
          "name": "_paid",
          "type": "uint256"
        },
        {
          "internalType": "uint256",
          "name": "_startTime",
          "type": "uint256"
        }
      ],
      "name": "updateUserLock",
      "outputs": [],
      "stateMutability": "nonpayable",
      "type": "function"
    },
    {
      "inputs": [],
      "name": "usdtAddress",
      "outputs": [
        {
          "internalType": "address",
          "name": "",
          "type": "address"
        }
      ],
      "stateMutability": "view",
      "type": "function"
    },
    {
      "inputs": [],
      "name": "withdrawETH",
      "outputs": [],
      "stateMutability": "nonpayable",
      "type": "function"
    },
    {
      "inputs": [],
      "name": "withdrawParadox",
      "outputs": [],
      "stateMutability": "nonpayable",
      "type": "function"
    },
    {
      "inputs": [
        {
          "internalType": "address",
          "name": "_destination",
          "type": "address"
        }
      ],
      "name": "withdrawTether",
      "outputs": [],
      "stateMutability": "nonpayable",
      "type": "function"
    }
  ],
  "bytecode": "0x60806040523480156200001157600080fd5b506040516200239838038062002398833981810160405281019062000037919062000299565b620000576200004b6200016360201b60201c565b6200016b60201b60201c565b81600160006101000a81548173ffffffffffffffffffffffffffffffffffffffff021916908373ffffffffffffffffffffffffffffffffffffffff16021790555081600460006101000a81548173ffffffffffffffffffffffffffffffffffffffff021916908373ffffffffffffffffffffffffffffffffffffffff16021790555080600260006101000a81548173ffffffffffffffffffffffffffffffffffffffff021916908373ffffffffffffffffffffffffffffffffffffffff16021790555080600360006101000a81548173ffffffffffffffffffffffffffffffffffffffff021916908373ffffffffffffffffffffffffffffffffffffffff1602179055505050620002e0565b600033905090565b60008060009054906101000a900473ffffffffffffffffffffffffffffffffffffffff169050816000806101000a81548173ffffffffffffffffffffffffffffffffffffffff021916908373ffffffffffffffffffffffffffffffffffffffff1602179055508173ffffffffffffffffffffffffffffffffffffffff168173ffffffffffffffffffffffffffffffffffffffff167f8be0079c531659141344cd1fd0a4f28419497f9722a3daafe3b4186f6b6457e060405160405180910390a35050565b600080fd5b600073ffffffffffffffffffffffffffffffffffffffff82169050919050565b6000620002618262000234565b9050919050565b620002738162000254565b81146200027f57600080fd5b50565b600081519050620002938162000268565b92915050565b60008060408385031215620002b357620002b26200022f565b5b6000620002c38582860162000282565b9250506020620002d68582860162000282565b9150509250929050565b6120a880620002f06000396000f3fe608060405234801561001057600080fd5b50600436106101005760003560e01c80639ab4a44511610097578063dd896a1c11610066578063dd896a1c14610250578063e086e5ec14610280578063eb46260e1461028a578063f2fde38b146102ba57610100565b80639ab4a445146101ca578063bd4a0fbd146101e8578063c750ae6014610204578063d856cd331461022057610100565b8063715018a6116100d3578063715018a61461018e5780637dc02247146101985780638da5cb5b146101a2578063991cbe27146101c057610100565b80630e46fbd1146101055780630fe7fa33146101215780632b113a701461013f5780635de9a1371461015b575b600080fd5b61011f600480360381019061011a9190611676565b6102d6565b005b610129610385565b60405161013691906116b2565b60405180910390f35b61015960048036038101906101549190611676565b6103ab565b005b61017560048036038101906101709190611676565b61049e565b60405161018594939291906116e6565b60405180910390f35b6101966104ce565b005b6101a06104e2565b005b6101aa6106db565b6040516101b791906116b2565b60405180910390f35b6101c8610704565b005b6101d26107f6565b6040516101df91906116b2565b60405180910390f35b61020260048036038101906101fd9190611757565b61081c565b005b61021e60048036038101906102199190611784565b610e42565b005b61023a60048036038101906102359190611676565b610eaf565b60405161024791906117eb565b60405180910390f35b61026a60048036038101906102659190611676565b610fd6565b6040516102779190611821565b60405180910390f35b610288610ff6565b005b6102a4600480360381019061029f9190611676565b61104d565b6040516102b19190611821565b60405180910390f35b6102d460048036038101906102cf9190611676565b6110a3565b005b6102de611126565b600560008273ffffffffffffffffffffffffffffffffffffffff1673ffffffffffffffffffffffffffffffffffffffff16815260200190815260200160002060009054906101000a900460ff1615600560008373ffffffffffffffffffffffffffffffffffffffff1673ffffffffffffffffffffffffffffffffffffffff16815260200190815260200160002060006101000a81548160ff02191690831515021790555050565b600260009054906101000a900473ffffffffffffffffffffffffffffffffffffffff1681565b6103b3611126565b61049b81600460009054906101000a900473ffffffffffffffffffffffffffffffffffffffff1673ffffffffffffffffffffffffffffffffffffffff166370a08231306040518263ffffffff1660e01b815260040161041291906116b2565b602060405180830381865afa15801561042f573d6000803e3d6000fd5b505050506040513d601f19601f820116820180604052508101906104539190611851565b600460009054906101000a900473ffffffffffffffffffffffffffffffffffffffff1673ffffffffffffffffffffffffffffffffffffffff166111a49092919063ffffffff16565b50565b60066020528060005260406000206000915090508060000154908060010154908060020154908060030154905084565b6104d6611126565b6104e0600061122a565b565b6000600660003373ffffffffffffffffffffffffffffffffffffffff1673ffffffffffffffffffffffffffffffffffffffff1681526020019081526020016000209050806002015481600001541161056f576040517f08c379a0000000000000000000000000000000000000000000000000000000008152600401610566906118db565b60405180910390fd5b60006224ea00826003015442610585919061192a565b61058f919061198d565b905060006064600584600001546105a691906119be565b6105b0919061198d565b9050600080600090505b8381101561060357600281106105f057846000015482106105e15784600001549150610603565b82826105ed9190611a00565b91505b80806105fb90611a34565b9150506105ba565b506000846002015482610616919061192a565b90508085600201600082825461062c9190611a00565b92505081905550600360009054906101000a900473ffffffffffffffffffffffffffffffffffffffff1673ffffffffffffffffffffffffffffffffffffffff1663a9059cbb33836040518363ffffffff1660e01b8152600401610690929190611a7c565b6020604051808303816000875af11580156106af573d6000803e3d6000fd5b505050506040513d601f19601f820116820180604052508101906106d39190611ad1565b505050505050565b60008060009054906101000a900473ffffffffffffffffffffffffffffffffffffffff16905090565b61070c611126565b6107f433600360009054906101000a900473ffffffffffffffffffffffffffffffffffffffff1673ffffffffffffffffffffffffffffffffffffffff166370a08231306040518263ffffffff1660e01b815260040161076b91906116b2565b602060405180830381865afa158015610788573d6000803e3d6000fd5b505050506040513d601f19601f820116820180604052508101906107ac9190611851565b600360009054906101000a900473ffffffffffffffffffffffffffffffffffffffff1673ffffffffffffffffffffffffffffffffffffffff166111a49092919063ffffffff16565b565b600160009054906101000a900473ffffffffffffffffffffffffffffffffffffffff1681565b600560003373ffffffffffffffffffffffffffffffffffffffff1673ffffffffffffffffffffffffffffffffffffffff16815260200190815260200160002060009054906101000a900460ff16156108a9576040517f08c379a00000000000000000000000000000000000000000000000000000000081526004016108a090611b4a565b60405180910390fd5b620f42406103e86108ba91906119be565b8111156108fc576040517f08c379a00000000000000000000000000000000000000000000000000000000081526004016108f390611bb6565b60405180910390fd5b60006003620f424061090e91906119be565b670de0b6b3a764000060648461092491906119be565b61092e91906119be565b610938919061198d565b9050600360009054906101000a900473ffffffffffffffffffffffffffffffffffffffff1673ffffffffffffffffffffffffffffffffffffffff166370a08231306040518263ffffffff1660e01b815260040161099591906116b2565b602060405180830381865afa1580156109b2573d6000803e3d6000fd5b505050506040513d601f19601f820116820180604052508101906109d69190611851565b811115610a18576040517f08c379a0000000000000000000000000000000000000000000000000000000008152600401610a0f90611c22565b60405180910390fd5b60006064601483610a2991906119be565b610a33919061198d565b905060008183610a43919061192a565b90506000600660003373ffffffffffffffffffffffffffffffffffffffff1673ffffffffffffffffffffffffffffffffffffffff1681526020019081526020016000206000015403610b905760405180608001604052808281526020018581526020016000815260200142815250600660003373ffffffffffffffffffffffffffffffffffffffff1673ffffffffffffffffffffffffffffffffffffffff16815260200190815260200160002060008201518160000155602082015181600101556040820151816002015560608201518160030155905050620f42406103e8610b2c91906119be565b8403610b8b576001600560003373ffffffffffffffffffffffffffffffffffffffff1673ffffffffffffffffffffffffffffffffffffffff16815260200190815260200160002060006101000a81548160ff0219169083151502179055505b610da0565b620f42406103e8610ba191906119be565b600660003373ffffffffffffffffffffffffffffffffffffffff1673ffffffffffffffffffffffffffffffffffffffff1681526020019081526020016000206001015485610bef9190611a00565b1115610c30576040517f08c379a0000000000000000000000000000000000000000000000000000000008152600401610c2790611c8e565b60405180910390fd5b80600660003373ffffffffffffffffffffffffffffffffffffffff1673ffffffffffffffffffffffffffffffffffffffff1681526020019081526020016000206000016000828254610c829190611a00565b92505081905550620f42406103e8610c9a91906119be565b600660003373ffffffffffffffffffffffffffffffffffffffff1673ffffffffffffffffffffffffffffffffffffffff1681526020019081526020016000206001015485610ce89190611a00565b03610d46576001600560003373ffffffffffffffffffffffffffffffffffffffff1673ffffffffffffffffffffffffffffffffffffffff16815260200190815260200160002060006101000a81548160ff0219169083151502179055505b83600660003373ffffffffffffffffffffffffffffffffffffffff1673ffffffffffffffffffffffffffffffffffffffff1681526020019081526020016000206001016000828254610d989190611a00565b925050819055505b610def333086600460009054906101000a900473ffffffffffffffffffffffffffffffffffffffff1673ffffffffffffffffffffffffffffffffffffffff166112ee909392919063ffffffff16565b610e3c3383600360009054906101000a900473ffffffffffffffffffffffffffffffffffffffff1673ffffffffffffffffffffffffffffffffffffffff166111a49092919063ffffffff16565b50505050565b610e4a611126565b6000600660008673ffffffffffffffffffffffffffffffffffffffff1673ffffffffffffffffffffffffffffffffffffffff16815260200190815260200160002090508381600001819055508281600101819055508181600301819055505050505050565b600080600660008473ffffffffffffffffffffffffffffffffffffffff1673ffffffffffffffffffffffffffffffffffffffff168152602001908152602001600020604051806080016040529081600082015481526020016001820154815260200160028201548152602001600382015481525050905060006224ea00826060015142610f3c919061192a565b610f46919061198d565b90506000606460058460000151610f5d91906119be565b610f67919061198d565b9050600080600090505b83811015610fba5760028110610fa75784600001518210610f985784600001519150610fba565b8282610fa49190611a00565b91505b8080610fb290611a34565b915050610f71565b50836040015181610fcb919061192a565b945050505050919050565b60056020528060005260406000206000915054906101000a900460ff1681565b610ffe611126565b60003390508073ffffffffffffffffffffffffffffffffffffffff166108fc479081150290604051600060405180830381858888f19350505050158015611049573d6000803e3d6000fd5b5050565b6000600560008373ffffffffffffffffffffffffffffffffffffffff1673ffffffffffffffffffffffffffffffffffffffff16815260200190815260200160002060009054906101000a900460ff169050919050565b6110ab611126565b600073ffffffffffffffffffffffffffffffffffffffff168173ffffffffffffffffffffffffffffffffffffffff160361111a576040517f08c379a000000000000000000000000000000000000000000000000000000000815260040161111190611d20565b60405180910390fd5b6111238161122a565b50565b61112e611377565b73ffffffffffffffffffffffffffffffffffffffff1661114c6106db565b73ffffffffffffffffffffffffffffffffffffffff16146111a2576040517f08c379a000000000000000000000000000000000000000000000000000000000815260040161119990611d8c565b60405180910390fd5b565b6112258363a9059cbb60e01b84846040516024016111c3929190611a7c565b604051602081830303815290604052907bffffffffffffffffffffffffffffffffffffffffffffffffffffffff19166020820180517bffffffffffffffffffffffffffffffffffffffffffffffffffffffff838183161783525050505061137f565b505050565b60008060009054906101000a900473ffffffffffffffffffffffffffffffffffffffff169050816000806101000a81548173ffffffffffffffffffffffffffffffffffffffff021916908373ffffffffffffffffffffffffffffffffffffffff1602179055508173ffffffffffffffffffffffffffffffffffffffff168173ffffffffffffffffffffffffffffffffffffffff167f8be0079c531659141344cd1fd0a4f28419497f9722a3daafe3b4186f6b6457e060405160405180910390a35050565b611371846323b872dd60e01b85858560405160240161130f93929190611dac565b604051602081830303815290604052907bffffffffffffffffffffffffffffffffffffffffffffffffffffffff19166020820180517bffffffffffffffffffffffffffffffffffffffffffffffffffffffff838183161783525050505061137f565b50505050565b600033905090565b60006113e1826040518060400160405280602081526020017f5361666545524332303a206c6f772d6c6576656c2063616c6c206661696c65648152508573ffffffffffffffffffffffffffffffffffffffff166114469092919063ffffffff16565b905060008151111561144157808060200190518101906114019190611ad1565b611440576040517f08c379a000000000000000000000000000000000000000000000000000000000815260040161143790611e55565b60405180910390fd5b5b505050565b6060611455848460008561145e565b90509392505050565b6060824710156114a3576040517f08c379a000000000000000000000000000000000000000000000000000000000815260040161149a90611ee7565b60405180910390fd5b6000808673ffffffffffffffffffffffffffffffffffffffff1685876040516114cc9190611f78565b60006040518083038185875af1925050503d8060008114611509576040519150601f19603f3d011682016040523d82523d6000602084013e61150e565b606091505b509150915061151f8783838761152b565b92505050949350505050565b6060831561158d57600083510361158557611545856115a0565b611584576040517f08c379a000000000000000000000000000000000000000000000000000000000815260040161157b90611fdb565b60405180910390fd5b5b829050611598565b61159783836115c3565b5b949350505050565b6000808273ffffffffffffffffffffffffffffffffffffffff163b119050919050565b6000825111156115d65781518083602001fd5b806040517f08c379a000000000000000000000000000000000000000000000000000000000815260040161160a9190612050565b60405180910390fd5b600080fd5b600073ffffffffffffffffffffffffffffffffffffffff82169050919050565b600061164382611618565b9050919050565b61165381611638565b811461165e57600080fd5b50565b6000813590506116708161164a565b92915050565b60006020828403121561168c5761168b611613565b5b600061169a84828501611661565b91505092915050565b6116ac81611638565b82525050565b60006020820190506116c760008301846116a3565b92915050565b6000819050919050565b6116e0816116cd565b82525050565b60006080820190506116fb60008301876116d7565b61170860208301866116d7565b61171560408301856116d7565b61172260608301846116d7565b95945050505050565b611734816116cd565b811461173f57600080fd5b50565b6000813590506117518161172b565b92915050565b60006020828403121561176d5761176c611613565b5b600061177b84828501611742565b91505092915050565b6000806000806080858703121561179e5761179d611613565b5b60006117ac87828801611661565b94505060206117bd87828801611742565b93505060406117ce87828801611742565b92505060606117df87828801611742565b91505092959194509250565b600060208201905061180060008301846116d7565b92915050565b60008115159050919050565b61181b81611806565b82525050565b60006020820190506118366000830184611812565b92915050565b60008151905061184b8161172b565b92915050565b60006020828403121561186757611866611613565b5b60006118758482850161183c565b91505092915050565b600082825260208201905092915050565b7f56657374696e6720436f6d706c65746500000000000000000000000000000000600082015250565b60006118c560108361187e565b91506118d08261188f565b602082019050919050565b600060208201905081810360008301526118f4816118b8565b9050919050565b7f4e487b7100000000000000000000000000000000000000000000000000000000600052601160045260246000fd5b6000611935826116cd565b9150611940836116cd565b9250828203905081811115611958576119576118fb565b5b92915050565b7f4e487b7100000000000000000000000000000000000000000000000000000000600052601260045260246000fd5b6000611998826116cd565b91506119a3836116cd565b9250826119b3576119b261195e565b5b828204905092915050565b60006119c9826116cd565b91506119d4836116cd565b92508282026119e2816116cd565b915082820484148315176119f9576119f86118fb565b5b5092915050565b6000611a0b826116cd565b9150611a16836116cd565b9250828201905080821115611a2e57611a2d6118fb565b5b92915050565b6000611a3f826116cd565b91507fffffffffffffffffffffffffffffffffffffffffffffffffffffffffffffffff8203611a7157611a706118fb565b5b600182019050919050565b6000604082019050611a9160008301856116a3565b611a9e60208301846116d7565b9392505050565b611aae81611806565b8114611ab957600080fd5b50565b600081519050611acb81611aa5565b92915050565b600060208284031215611ae757611ae6611613565b5b6000611af584828501611abc565b91505092915050565b7f4c696d6974207265616368656400000000000000000000000000000000000000600082015250565b6000611b34600d8361187e565b9150611b3f82611afe565b602082019050919050565b60006020820190508181036000830152611b6381611b27565b9050919050565b7f57726f6e6720616d6f756e740000000000000000000000000000000000000000600082015250565b6000611ba0600c8361187e565b9150611bab82611b6a565b602082019050919050565b60006020820190508181036000830152611bcf81611b93565b9050919050565b7f4c6f772062616c616e6365000000000000000000000000000000000000000000600082015250565b6000611c0c600b8361187e565b9150611c1782611bd6565b602082019050919050565b60006020820190508181036000830152611c3b81611bff565b9050919050565b7f546f6f204d756368000000000000000000000000000000000000000000000000600082015250565b6000611c7860088361187e565b9150611c8382611c42565b602082019050919050565b60006020820190508181036000830152611ca781611c6b565b9050919050565b7f4f776e61626c653a206e6577206f776e657220697320746865207a65726f206160008201527f6464726573730000000000000000000000000000000000000000000000000000602082015250565b6000611d0a60268361187e565b9150611d1582611cae565b604082019050919050565b60006020820190508181036000830152611d3981611cfd565b9050919050565b7f4f776e61626c653a2063616c6c6572206973206e6f7420746865206f776e6572600082015250565b6000611d7660208361187e565b9150611d8182611d40565b602082019050919050565b60006020820190508181036000830152611da581611d69565b9050919050565b6000606082019050611dc160008301866116a3565b611dce60208301856116a3565b611ddb60408301846116d7565b949350505050565b7f5361666545524332303a204552433230206f7065726174696f6e20646964206e60008201527f6f74207375636365656400000000000000000000000000000000000000000000602082015250565b6000611e3f602a8361187e565b9150611e4a82611de3565b604082019050919050565b60006020820190508181036000830152611e6e81611e32565b9050919050565b7f416464726573733a20696e73756666696369656e742062616c616e636520666f60008201527f722063616c6c0000000000000000000000000000000000000000000000000000602082015250565b6000611ed160268361187e565b9150611edc82611e75565b604082019050919050565b60006020820190508181036000830152611f0081611ec4565b9050919050565b600081519050919050565b600081905092915050565b60005b83811015611f3b578082015181840152602081019050611f20565b60008484015250505050565b6000611f5282611f07565b611f5c8185611f12565b9350611f6c818560208601611f1d565b80840191505092915050565b6000611f848284611f47565b915081905092915050565b7f416464726573733a2063616c6c20746f206e6f6e2d636f6e7472616374000000600082015250565b6000611fc5601d8361187e565b9150611fd082611f8f565b602082019050919050565b60006020820190508181036000830152611ff481611fb8565b9050919050565b600081519050919050565b6000601f19601f8301169050919050565b600061202282611ffb565b61202c818561187e565b935061203c818560208601611f1d565b61204581612006565b840191505092915050565b6000602082019050818103600083015261206a8184612017565b90509291505056fea2646970667358221220388c22551e23f9cf30dfe551c6e1df7c69873c8b1680c507013941e24304e3de64736f6c63430008120033",
  "linkReferences": {},
  "deployedLinkReferences": {}
}